{
  "_format": "hh-sol-artifact-1",
  "contractName": "Marketplace",
  "sourceName": "contracts/Marketplace.sol",
  "abi": [
    {
      "inputs": [],
      "stateMutability": "nonpayable",
      "type": "constructor"
    },
    {
      "anonymous": false,
      "inputs": [
        {
          "indexed": true,
          "internalType": "uint256",
          "name": "itemId",
          "type": "uint256"
        },
        {
          "indexed": false,
          "internalType": "string",
          "name": "name",
          "type": "string"
        },
        {
          "indexed": false,
          "internalType": "uint256",
          "name": "price",
          "type": "uint256"
        },
        {
          "indexed": true,
          "internalType": "address",
          "name": "seller",
          "type": "address"
        }
      ],
      "name": "ItemListed",
      "type": "event"
    },
    {
      "anonymous": false,
      "inputs": [
        {
          "indexed": true,
          "internalType": "uint256",
          "name": "itemId",
          "type": "uint256"
        },
        {
          "indexed": false,
          "internalType": "string",
          "name": "name",
          "type": "string"
        },
        {
          "indexed": false,
          "internalType": "uint256",
          "name": "price",
          "type": "uint256"
        },
        {
          "indexed": true,
          "internalType": "address",
          "name": "seller",
          "type": "address"
        },
        {
          "indexed": true,
          "internalType": "address",
          "name": "buyer",
          "type": "address"
        },
        {
          "indexed": false,
          "internalType": "uint256",
          "name": "pendingPurchaseId",
          "type": "uint256"
        }
      ],
      "name": "PurchaseApproved",
      "type": "event"
    },
    {
      "anonymous": false,
      "inputs": [
        {
          "indexed": true,
          "internalType": "uint256",
          "name": "itemId",
          "type": "uint256"
        },
        {
          "indexed": true,
          "internalType": "address",
          "name": "seller",
          "type": "address"
        },
        {
          "indexed": true,
          "internalType": "address",
          "name": "buyer",
          "type": "address"
        },
        {
          "indexed": false,
          "internalType": "uint256",
          "name": "pendingPurchaseId",
          "type": "uint256"
        }
      ],
      "name": "PurchaseRejected",
      "type": "event"
    },
    {
      "anonymous": false,
      "inputs": [
        {
          "indexed": true,
          "internalType": "uint256",
          "name": "itemId",
          "type": "uint256"
        },
        {
          "indexed": false,
          "internalType": "string",
          "name": "name",
          "type": "string"
        },
        {
          "indexed": false,
          "internalType": "uint256",
          "name": "price",
          "type": "uint256"
        },
        {
          "indexed": true,
          "internalType": "address",
          "name": "seller",
          "type": "address"
        },
        {
          "indexed": true,
          "internalType": "address",
          "name": "buyer",
          "type": "address"
        },
        {
          "indexed": false,
          "internalType": "uint256",
          "name": "pendingPurchaseId",
          "type": "uint256"
        }
      ],
      "name": "PurchaseRequested",
      "type": "event"
    },
    {
      "inputs": [
        {
          "internalType": "uint256",
          "name": "_pendingPurchaseId",
          "type": "uint256"
        }
      ],
      "name": "approvePurchase",
      "outputs": [],
      "stateMutability": "nonpayable",
      "type": "function"
    },
    {
      "inputs": [],
      "name": "getAllItems",
      "outputs": [
        {
          "components": [
            {
              "internalType": "uint256",
              "name": "id",
              "type": "uint256"
            },
            {
              "internalType": "string",
              "name": "name",
              "type": "string"
            },
            {
              "internalType": "string",
              "name": "description",
              "type": "string"
            },
            {
              "internalType": "string",
              "name": "imageUrl",
              "type": "string"
            },
            {
              "internalType": "uint256",
              "name": "price",
              "type": "uint256"
            },
            {
              "internalType": "address",
              "name": "seller",
              "type": "address"
            },
            {
              "internalType": "address",
              "name": "buyer",
              "type": "address"
            },
            {
              "internalType": "bool",
              "name": "isSold",
              "type": "bool"
            },
            {
              "internalType": "bool",
              "name": "exists",
              "type": "bool"
            }
          ],
          "internalType": "struct Marketplace.Item[]",
          "name": "",
          "type": "tuple[]"
        }
      ],
      "stateMutability": "view",
      "type": "function"
    },
    {
      "inputs": [],
      "name": "getAllPendingPurchases",
      "outputs": [
        {
          "components": [
            {
              "internalType": "uint256",
              "name": "itemId",
              "type": "uint256"
            },
            {
              "internalType": "address",
              "name": "buyer",
              "type": "address"
            },
            {
              "internalType": "address",
              "name": "seller",
              "type": "address"
            },
            {
              "internalType": "uint256",
              "name": "price",
              "type": "uint256"
            },
            {
              "internalType": "uint256",
              "name": "timestamp",
              "type": "uint256"
            },
            {
              "internalType": "bool",
              "name": "exists",
              "type": "bool"
            }
          ],
          "internalType": "struct Marketplace.PendingPurchase[]",
          "name": "",
          "type": "tuple[]"
        }
      ],
      "stateMutability": "view",
      "type": "function"
    },
    {
      "inputs": [],
      "name": "getAvailableItems",
      "outputs": [
        {
          "components": [
            {
              "internalType": "uint256",
              "name": "id",
              "type": "uint256"
            },
            {
              "internalType": "string",
              "name": "name",
              "type": "string"
            },
            {
              "internalType": "string",
              "name": "description",
              "type": "string"
            },
            {
              "internalType": "string",
              "name": "imageUrl",
              "type": "string"
            },
            {
              "internalType": "uint256",
              "name": "price",
              "type": "uint256"
            },
            {
              "internalType": "address",
              "name": "seller",
              "type": "address"
            },
            {
              "internalType": "address",
              "name": "buyer",
              "type": "address"
            },
            {
              "internalType": "bool",
              "name": "isSold",
              "type": "bool"
            },
            {
              "internalType": "bool",
              "name": "exists",
              "type": "bool"
            }
          ],
          "internalType": "struct Marketplace.Item[]",
          "name": "",
          "type": "tuple[]"
        }
      ],
      "stateMutability": "view",
      "type": "function"
    },
    {
      "inputs": [
        {
          "internalType": "uint256",
          "name": "_itemId",
          "type": "uint256"
        }
      ],
      "name": "getItem",
      "outputs": [
        {
          "internalType": "uint256",
          "name": "id",
          "type": "uint256"
        },
        {
          "internalType": "string",
          "name": "name",
          "type": "string"
        },
        {
          "internalType": "string",
          "name": "description",
          "type": "string"
        },
        {
          "internalType": "string",
          "name": "imageUrl",
          "type": "string"
        },
        {
          "internalType": "uint256",
          "name": "price",
          "type": "uint256"
        },
        {
          "internalType": "address",
          "name": "seller",
          "type": "address"
        },
        {
          "internalType": "address",
          "name": "buyer",
          "type": "address"
        },
        {
          "internalType": "bool",
          "name": "isSold",
          "type": "bool"
        }
      ],
      "stateMutability": "view",
      "type": "function"
    },
    {
      "inputs": [],
      "name": "getMyListedItems",
      "outputs": [
        {
          "components": [
            {
              "internalType": "uint256",
              "name": "id",
              "type": "uint256"
            },
            {
              "internalType": "string",
              "name": "name",
              "type": "string"
            },
            {
              "internalType": "string",
              "name": "description",
              "type": "string"
            },
            {
              "internalType": "string",
              "name": "imageUrl",
              "type": "string"
            },
            {
              "internalType": "uint256",
              "name": "price",
              "type": "uint256"
            },
            {
              "internalType": "address",
              "name": "seller",
              "type": "address"
            },
            {
              "internalType": "address",
              "name": "buyer",
              "type": "address"
            },
            {
              "internalType": "bool",
              "name": "isSold",
              "type": "bool"
            },
            {
              "internalType": "bool",
              "name": "exists",
              "type": "bool"
            }
          ],
          "internalType": "struct Marketplace.Item[]",
          "name": "",
          "type": "tuple[]"
        }
      ],
      "stateMutability": "view",
      "type": "function"
    },
    {
      "inputs": [],
      "name": "getMyPurchasedItems",
      "outputs": [
        {
          "components": [
            {
              "internalType": "uint256",
              "name": "id",
              "type": "uint256"
            },
            {
              "internalType": "string",
              "name": "name",
              "type": "string"
            },
            {
              "internalType": "string",
              "name": "description",
              "type": "string"
            },
            {
              "internalType": "string",
              "name": "imageUrl",
              "type": "string"
            },
            {
              "internalType": "uint256",
              "name": "price",
              "type": "uint256"
            },
            {
              "internalType": "address",
              "name": "seller",
              "type": "address"
            },
            {
              "internalType": "address",
              "name": "buyer",
              "type": "address"
            },
            {
              "internalType": "bool",
              "name": "isSold",
              "type": "bool"
            },
            {
              "internalType": "bool",
              "name": "exists",
              "type": "bool"
            }
          ],
          "internalType": "struct Marketplace.Item[]",
          "name": "",
          "type": "tuple[]"
        }
      ],
      "stateMutability": "view",
      "type": "function"
    },
    {
      "inputs": [
        {
          "internalType": "uint256",
          "name": "_pendingPurchaseId",
          "type": "uint256"
        }
      ],
      "name": "getPendingPurchase",
      "outputs": [
        {
          "internalType": "uint256",
          "name": "itemId",
          "type": "uint256"
        },
        {
          "internalType": "address",
          "name": "buyer",
          "type": "address"
        },
        {
          "internalType": "address",
          "name": "seller",
          "type": "address"
        },
        {
          "internalType": "uint256",
          "name": "price",
          "type": "uint256"
        },
        {
          "internalType": "uint256",
          "name": "timestamp",
          "type": "uint256"
        }
      ],
      "stateMutability": "view",
      "type": "function"
    },
    {
      "inputs": [
        {
          "internalType": "uint256",
          "name": "_itemId",
          "type": "uint256"
        }
      ],
      "name": "getPendingPurchasesForItem",
      "outputs": [
        {
          "components": [
            {
              "internalType": "uint256",
              "name": "itemId",
              "type": "uint256"
            },
            {
              "internalType": "address",
              "name": "buyer",
              "type": "address"
            },
            {
              "internalType": "address",
              "name": "seller",
              "type": "address"
            },
            {
              "internalType": "uint256",
              "name": "price",
              "type": "uint256"
            },
            {
              "internalType": "uint256",
              "name": "timestamp",
              "type": "uint256"
            },
            {
              "internalType": "bool",
              "name": "exists",
              "type": "bool"
            }
          ],
          "internalType": "struct Marketplace.PendingPurchase[]",
          "name": "",
          "type": "tuple[]"
        }
      ],
      "stateMutability": "view",
      "type": "function"
    },
    {
      "inputs": [],
      "name": "itemCount",
      "outputs": [
        {
          "internalType": "uint256",
          "name": "",
          "type": "uint256"
        }
      ],
      "stateMutability": "view",
      "type": "function"
    },
    {
      "inputs": [
        {
          "internalType": "uint256",
          "name": "",
          "type": "uint256"
        }
      ],
      "name": "items",
      "outputs": [
        {
          "internalType": "uint256",
          "name": "id",
          "type": "uint256"
        },
        {
          "internalType": "string",
          "name": "name",
          "type": "string"
        },
        {
          "internalType": "string",
          "name": "description",
          "type": "string"
        },
        {
          "internalType": "string",
          "name": "imageUrl",
          "type": "string"
        },
        {
          "internalType": "uint256",
          "name": "price",
          "type": "uint256"
        },
        {
          "internalType": "address",
          "name": "seller",
          "type": "address"
        },
        {
          "internalType": "address",
          "name": "buyer",
          "type": "address"
        },
        {
          "internalType": "bool",
          "name": "isSold",
          "type": "bool"
        },
        {
          "internalType": "bool",
          "name": "exists",
          "type": "bool"
        }
      ],
      "stateMutability": "view",
      "type": "function"
    },
    {
      "inputs": [
        {
          "internalType": "string",
          "name": "_name",
          "type": "string"
        },
        {
          "internalType": "string",
          "name": "_description",
          "type": "string"
        },
        {
          "internalType": "string",
          "name": "_imageUrl",
          "type": "string"
        },
        {
          "internalType": "uint256",
          "name": "_price",
          "type": "uint256"
        }
      ],
      "name": "listItem",
      "outputs": [
        {
          "internalType": "uint256",
          "name": "",
          "type": "uint256"
        }
      ],
      "stateMutability": "nonpayable",
      "type": "function"
    },
    {
      "inputs": [],
      "name": "owner",
      "outputs": [
        {
          "internalType": "address",
          "name": "",
          "type": "address"
        }
      ],
      "stateMutability": "view",
      "type": "function"
    },
    {
      "inputs": [],
      "name": "pendingPurchaseCount",
      "outputs": [
        {
          "internalType": "uint256",
          "name": "",
          "type": "uint256"
        }
      ],
      "stateMutability": "view",
      "type": "function"
    },
    {
      "inputs": [
        {
          "internalType": "uint256",
          "name": "",
          "type": "uint256"
        }
      ],
      "name": "pendingPurchases",
      "outputs": [
        {
          "internalType": "uint256",
          "name": "itemId",
          "type": "uint256"
        },
        {
          "internalType": "address",
          "name": "buyer",
          "type": "address"
        },
        {
          "internalType": "address",
          "name": "seller",
          "type": "address"
        },
        {
          "internalType": "uint256",
          "name": "price",
          "type": "uint256"
        },
        {
          "internalType": "uint256",
          "name": "timestamp",
          "type": "uint256"
        },
        {
          "internalType": "bool",
          "name": "exists",
          "type": "bool"
        }
      ],
      "stateMutability": "view",
      "type": "function"
    },
    {
      "inputs": [
        {
          "internalType": "uint256",
          "name": "_itemId",
          "type": "uint256"
        }
      ],
      "name": "purchaseItem",
      "outputs": [],
      "stateMutability": "payable",
      "type": "function"
    },
    {
      "inputs": [
        {
          "internalType": "uint256",
          "name": "_pendingPurchaseId",
          "type": "uint256"
        }
      ],
      "name": "rejectPurchase",
      "outputs": [],
      "stateMutability": "nonpayable",
      "type": "function"
    }
  ],
  "bytecode": "0x608060405234801561001057600080fd5b50600480546001600160a01b0319163317905560006002819055600355612ba58061003c6000396000f3fe6080604052600436106100fe5760003560e01c80636bfb0d0111610095578063b37b53f711610064578063b37b53f714610350578063bfb231d214610370578063d38ea5bf146103a5578063d65274c9146103b8578063ffe7abdb146103d857600080fd5b80636bfb0d01146102bf57806386fa8292146102e35780638da5cb5b146102f8578063974f04b61461033057600080fd5b806336de0f14116100d157806336de0f14146101995780633b5342c31461023457806344f2e3b6146102565780634ba1d6aa146102aa57600080fd5b80630658a6c2146101035780630c43d6f31461012e5780633129e7731461015057806336a4009c14610184575b600080fd5b34801561010f57600080fd5b506101186103ee565b6040516101259190612494565b60405180910390f35b34801561013a57600080fd5b50610143610520565b6040516101259190612560565b34801561015c57600080fd5b5061017061016b36600461265e565b6108b4565b604051610125989796959493929190612677565b34801561019057600080fd5b50610143610bf1565b3480156101a557600080fd5b506101f96101b436600461265e565b60016020819052600091825260409091208054918101546002820154600383015460048401546005909401546001600160a01b03938416949390921692909160ff1686565b604080519687526001600160a01b039586166020880152939094169285019290925260608401526080830152151560a082015260c001610125565b34801561024057600080fd5b5061025461024f36600461265e565b610f7c565b005b34801561026257600080fd5b5061027661027136600461265e565b61112d565b604080519586526001600160a01b03948516602087015292909316918401919091526060830152608082015260a001610125565b3480156102b657600080fd5b506101436111e2565b3480156102cb57600080fd5b506102d560025481565b604051908152602001610125565b3480156102ef57600080fd5b506101436114d3565b34801561030457600080fd5b50600454610318906001600160a01b031681565b6040516001600160a01b039091168152602001610125565b34801561033c57600080fd5b5061011861034b36600461265e565b61185e565b34801561035c57600080fd5b5061025461036b36600461265e565b611a0b565b34801561037c57600080fd5b5061039061038b36600461265e565b611c5d565b604051610125999897969594939291906126ed565b6102546103b336600461265e565b611e54565b3480156103c457600080fd5b506102d56103d336600461280e565b612185565b3480156103e457600080fd5b506102d560035481565b6060600060035467ffffffffffffffff81111561040d5761040d61276b565b60405190808252806020026020018201604052801561044657816020015b6104336123e8565b81526020019060019003908161042b5790505b509050600060015b60035481116105185760008181526001602052604090206005015460ff161561050657600081815260016020818152604092839020835160c08101855281548152928101546001600160a01b0390811692840192909252600281015490911692820192909252600382015460608201526004820154608082015260059091015460ff16151560a082015283518490849081106104ec576104ec61289e565b60200260200101819052508180610502906128ca565b9250505b80610510816128ca565b91505061044e565b509092915050565b6060600060015b600254811161059657600081815260208190526040902060060154600160a81b900460ff1680156105715750600081815260208190526040902060060154600160a01b900460ff16155b156105845781610580816128ca565b9250505b8061058e816128ca565b915050610527565b5060008167ffffffffffffffff8111156105b2576105b261276b565b6040519080825280602002602001820160405280156105eb57816020015b6105d8612432565b8152602001906001900390816105d05790505b509050600060015b60025481116108ab57600081815260208190526040902060060154600160a81b900460ff16801561063d5750600081815260208190526040902060060154600160a01b900460ff16155b15610899576000818152602081815260409182902082516101208101909352805483526001810180549192840191610674906128e3565b80601f01602080910402602001604051908101604052809291908181526020018280546106a0906128e3565b80156106ed5780601f106106c2576101008083540402835291602001916106ed565b820191906000526020600020905b8154815290600101906020018083116106d057829003601f168201915b50505050508152602001600282018054610706906128e3565b80601f0160208091040260200160405190810160405280929190818152602001828054610732906128e3565b801561077f5780601f106107545761010080835404028352916020019161077f565b820191906000526020600020905b81548152906001019060200180831161076257829003601f168201915b50505050508152602001600382018054610798906128e3565b80601f01602080910402602001604051908101604052809291908181526020018280546107c4906128e3565b80156108115780601f106107e657610100808354040283529160200191610811565b820191906000526020600020905b8154815290600101906020018083116107f457829003601f168201915b50505091835250506004820154602082015260058201546001600160a01b039081166040830152600690920154918216606082015260ff600160a01b8304811615156080830152600160a81b909204909116151560a090910152835184908490811061087f5761087f61289e565b60200260200101819052508180610895906128ca565b9250505b806108a3816128ca565b9150506105f3565b50909392505050565b600060608060606000806000808860008082815260200190815260200160002060060160159054906101000a900460ff1661092c5760405162461bcd60e51b8152602060048201526013602482015272125d195b48191bd95cc81b9bdd08195e1a5cdd606a1b60448201526064015b60405180910390fd5b60008060008c81526020019081526020016000206040518061012001604052908160008201548152602001600182018054610966906128e3565b80601f0160208091040260200160405190810160405280929190818152602001828054610992906128e3565b80156109df5780601f106109b4576101008083540402835291602001916109df565b820191906000526020600020905b8154815290600101906020018083116109c257829003601f168201915b505050505081526020016002820180546109f8906128e3565b80601f0160208091040260200160405190810160405280929190818152602001828054610a24906128e3565b8015610a715780601f10610a4657610100808354040283529160200191610a71565b820191906000526020600020905b815481529060010190602001808311610a5457829003601f168201915b50505050508152602001600382018054610a8a906128e3565b80601f0160208091040260200160405190810160405280929190818152602001828054610ab6906128e3565b8015610b035780601f10610ad857610100808354040283529160200191610b03565b820191906000526020600020905b815481529060010190602001808311610ae657829003601f168201915b50505050508152602001600482015481526020016005820160009054906101000a90046001600160a01b03166001600160a01b03166001600160a01b031681526020016006820160009054906101000a90046001600160a01b03166001600160a01b03166001600160a01b031681526020016006820160149054906101000a900460ff161515151581526020016006820160159054906101000a900460ff1615151515815250509050806000015181602001518260400151836060015184608001518560a001518660c001518760e00151995099509950995099509950995099505050919395975091939597565b6060600060015b6002548111610c6757600081815260208190526040902060060154600160a81b900460ff168015610c4257506000818152602081905260409020600501546001600160a01b031633145b15610c555781610c51816128ca565b9250505b80610c5f816128ca565b915050610bf8565b5060008167ffffffffffffffff811115610c8357610c8361276b565b604051908082528060200260200182016040528015610cbc57816020015b610ca9612432565b815260200190600190039081610ca15790505b509050600060015b60025481116108ab57600081815260208190526040902060060154600160a81b900460ff168015610d0e57506000818152602081905260409020600501546001600160a01b031633145b15610f6a576000818152602081815260409182902082516101208101909352805483526001810180549192840191610d45906128e3565b80601f0160208091040260200160405190810160405280929190818152602001828054610d71906128e3565b8015610dbe5780601f10610d9357610100808354040283529160200191610dbe565b820191906000526020600020905b815481529060010190602001808311610da157829003601f168201915b50505050508152602001600282018054610dd7906128e3565b80601f0160208091040260200160405190810160405280929190818152602001828054610e03906128e3565b8015610e505780601f10610e2557610100808354040283529160200191610e50565b820191906000526020600020905b815481529060010190602001808311610e3357829003601f168201915b50505050508152602001600382018054610e69906128e3565b80601f0160208091040260200160405190810160405280929190818152602001828054610e95906128e3565b8015610ee25780601f10610eb757610100808354040283529160200191610ee2565b820191906000526020600020905b815481529060010190602001808311610ec557829003601f168201915b50505091835250506004820154602082015260058201546001600160a01b039081166040830152600690920154918216606082015260ff600160a01b8304811615156080830152600160a81b909204909116151560a0909101528351849084908110610f5057610f5061289e565b60200260200101819052508180610f66906128ca565b9250505b80610f74816128ca565b915050610cc4565b6004546001600160a01b03163314610fa65760405162461bcd60e51b815260040161092390612917565b600081815260016020526040902060050154819060ff16610fd95760405162461bcd60e51b815260040161092390612958565b600082815260016020819052604080832091820154600383015491519293926001600160a01b0390911691908381818185875af1925050503d806000811461103d576040519150601f19603f3d011682016040523d82523d6000602084013e611042565b606091505b505090508061108c5760405162461bcd60e51b81526020600482015260166024820152751499599d5b99081d1bc8189d5e595c8819985a5b195960521b6044820152606401610923565b600084815260016020818152604080842084815580840180546001600160a01b031990811690915560028083018054909216909155600382018690556004820195909555600501805460ff191690559185015492850154855492518881526001600160a01b039485169490911692917f269d8b9c33948a44c9dfe4d39a98f741fda5bfe91cf12d7b8c9269437340a19591015b60405180910390a450505050565b6000818152600160205260408120600501548190819081908190869060ff166111685760405162461bcd60e51b815260040161092390612958565b5050506000938452505060016020818152604093849020845160c0810186528154808252938201546001600160a01b0390811693820184905260028301541695810186905260038201546060820181905260048301546080830181905260059093015460ff16151560a09092019190915292959194935090565b6060600060025467ffffffffffffffff8111156112015761120161276b565b60405190808252806020026020018201604052801561123a57816020015b611227612432565b81526020019060019003908161121f5790505b50905060015b60025481116114cd57600081815260208190526040902060060154600160a81b900460ff16156114bb57600081815260208181526040918290208251610120810190935280548352600181018054919284019161129c906128e3565b80601f01602080910402602001604051908101604052809291908181526020018280546112c8906128e3565b80156113155780601f106112ea57610100808354040283529160200191611315565b820191906000526020600020905b8154815290600101906020018083116112f857829003601f168201915b5050505050815260200160028201805461132e906128e3565b80601f016020809104026020016040519081016040528092919081815260200182805461135a906128e3565b80156113a75780601f1061137c576101008083540402835291602001916113a7565b820191906000526020600020905b81548152906001019060200180831161138a57829003601f168201915b505050505081526020016003820180546113c0906128e3565b80601f01602080910402602001604051908101604052809291908181526020018280546113ec906128e3565b80156114395780601f1061140e57610100808354040283529160200191611439565b820191906000526020600020905b81548152906001019060200180831161141c57829003601f168201915b50505091835250506004820154602082015260058201546001600160a01b039081166040830152600690920154918216606082015260ff600160a01b8304811615156080830152600160a81b909204909116151560a0909101528261149f60018461298f565b815181106114af576114af61289e565b60200260200101819052505b806114c5816128ca565b915050611240565b50919050565b6060600060015b600254811161154957600081815260208190526040902060060154600160a81b900460ff16801561152457506000818152602081905260409020600601546001600160a01b031633145b156115375781611533816128ca565b9250505b80611541816128ca565b9150506114da565b5060008167ffffffffffffffff8111156115655761156561276b565b60405190808252806020026020018201604052801561159e57816020015b61158b612432565b8152602001906001900390816115835790505b509050600060015b60025481116108ab57600081815260208190526040902060060154600160a81b900460ff1680156115f057506000818152602081905260409020600601546001600160a01b031633145b1561184c576000818152602081815260409182902082516101208101909352805483526001810180549192840191611627906128e3565b80601f0160208091040260200160405190810160405280929190818152602001828054611653906128e3565b80156116a05780601f10611675576101008083540402835291602001916116a0565b820191906000526020600020905b81548152906001019060200180831161168357829003601f168201915b505050505081526020016002820180546116b9906128e3565b80601f01602080910402602001604051908101604052809291908181526020018280546116e5906128e3565b80156117325780601f1061170757610100808354040283529160200191611732565b820191906000526020600020905b81548152906001019060200180831161171557829003601f168201915b5050505050815260200160038201805461174b906128e3565b80601f0160208091040260200160405190810160405280929190818152602001828054611777906128e3565b80156117c45780601f10611799576101008083540402835291602001916117c4565b820191906000526020600020905b8154815290600101906020018083116117a757829003601f168201915b50505091835250506004820154602082015260058201546001600160a01b039081166040830152600690920154918216606082015260ff600160a01b8304811615156080830152600160a81b909204909116151560a09091015283518490849081106118325761183261289e565b60200260200101819052508180611848906128ca565b9250505b80611856816128ca565b9150506115a6565b6060600060015b60035481116118c15760008181526001602052604090206005015460ff16801561189c575060008181526001602052604090205484145b156118af57816118ab816128ca565b9250505b806118b9816128ca565b915050611865565b5060008167ffffffffffffffff8111156118dd576118dd61276b565b60405190808252806020026020018201604052801561191657816020015b6119036123e8565b8152602001906001900390816118fb5790505b509050600060015b6003548111611a015760008181526001602052604090206005015460ff168015611955575060008181526001602052604090205486145b156119ef57600081815260016020818152604092839020835160c08101855281548152928101546001600160a01b0390811692840192909252600281015490911692820192909252600382015460608201526004820154608082015260059091015460ff16151560a082015283518490849081106119d5576119d561289e565b602002602001018190525081806119eb906128ca565b9250505b806119f9816128ca565b91505061191e565b5090949350505050565b6004546001600160a01b03163314611a355760405162461bcd60e51b815260040161092390612917565b600081815260016020526040902060050154819060ff16611a685760405162461bcd60e51b815260040161092390612958565b600082815260016020908152604080832080548452918390529091206006810154600160a01b900460ff1615611ad75760405162461bcd60e51b8152602060048201526014602482015273125d195b481a5cc8185b1c9958591e481cdbdb1960621b6044820152606401610923565b60018201546006820180546001600160a81b0319166001600160a01b0392831617600160a01b17905560028301546003840154604051600093929092169160006040518083038185875af1925050503d8060008114611b52576040519150601f19603f3d011682016040523d82523d6000602084013e611b57565b606091505b5050905080611ba85760405162461bcd60e51b815260206004820152601960248201527f5472616e7366657220746f2073656c6c6572206661696c6564000000000000006044820152606401610923565b600085815260016020819052604080832083815580830180546001600160a01b031990811690915560028083018054909216909155600380830186905560048301959095556005909101805460ff19169055868301549087015487549488015492516001600160a01b0392831695919092169390927fa02093225ea86efa52086526fa6db63abbd34abdb5d843ad7fbc9f2f4499217892611c4e92890191908c906129a8565b60405180910390a45050505050565b60006020819052908152604090208054600182018054919291611c7f906128e3565b80601f0160208091040260200160405190810160405280929190818152602001828054611cab906128e3565b8015611cf85780601f10611ccd57610100808354040283529160200191611cf8565b820191906000526020600020905b815481529060010190602001808311611cdb57829003601f168201915b505050505090806002018054611d0d906128e3565b80601f0160208091040260200160405190810160405280929190818152602001828054611d39906128e3565b8015611d865780601f10611d5b57610100808354040283529160200191611d86565b820191906000526020600020905b815481529060010190602001808311611d6957829003601f168201915b505050505090806003018054611d9b906128e3565b80601f0160208091040260200160405190810160405280929190818152602001828054611dc7906128e3565b8015611e145780601f10611de957610100808354040283529160200191611e14565b820191906000526020600020905b815481529060010190602001808311611df757829003601f168201915b50505060048401546005850154600690950154939490936001600160a01b039182169350908116915060ff600160a01b8204811691600160a81b90041689565b6000818152602081905260409020600601548190600160a81b900460ff16611eb45760405162461bcd60e51b8152602060048201526013602482015272125d195b48191bd95cc81b9bdd08195e1a5cdd606a1b6044820152606401610923565b6000828152602081905260409020600601548290600160a01b900460ff1615611f165760405162461bcd60e51b8152602060048201526014602482015273125d195b481a5cc8185b1c9958591e481cdbdb1960621b6044820152606401610923565b60008381526020819052604090206004810154341015611f6f5760405162461bcd60e51b8152602060048201526014602482015273125b9cdd59999a58da595b9d081c185e5b595b9d60621b6044820152606401610923565b60058101546001600160a01b03163303611fcb5760405162461bcd60e51b815260206004820181905260248201527f53656c6c65722063616e6e6f7420627579207468656972206f776e206974656d6044820152606401610923565b60038054906000611fdb836128ca565b90915550506040805160c0810182528581523360208083019182526005808601546001600160a01b0390811685870190815260048089018054606089019081524260808a01908152600160a08b018181526003805460009081529a8390529c9099209a518b559851988a0180549987166001600160a01b03199a8b16179055935160028a01805491909616981697909717909355945196860196909655945192840192909255519101805491151560ff199092169190911790555434111561213557600481015460009033906120b1903461298f565b604051600081818185875af1925050503d80600081146120ed576040519150601f19603f3d011682016040523d82523d6000602084013e6120f2565b606091505b50509050806121335760405162461bcd60e51b815260206004820152600d60248201526c1499599d5b990819985a5b1959609a1b6044820152606401610923565b505b6005810154600482015460035460405133936001600160a01b03169288927f9f0c7478a546d33dd28ae2df2312b42497198e1acc3f94e977df5a934958d8509261111f92600189019290916129a8565b60008082116121d65760405162461bcd60e51b815260206004820152601c60248201527f5072696365206d7573742062652067726561746572207468616e2030000000006044820152606401610923565b600085511161221e5760405162461bcd60e51b81526020600482015260146024820152734e616d652063616e6e6f7420626520656d70747960601b6044820152606401610923565b600084511161226f5760405162461bcd60e51b815260206004820152601b60248201527f4465736372697074696f6e2063616e6e6f7420626520656d70747900000000006044820152606401610923565b6002805490600061227f836128ca565b90915550506040805161012081018252600254808252602080830189815283850189905260608401889052608084018790523360a0850152600060c0850181905260e085018190526001610100860181905293815291829052939020825181559251919291908201906122f29082612a8d565b50604082015160028201906123079082612a8d565b506060820151600382019061231c9082612a8d565b506080820151600482015560a08201516005820180546001600160a01b0319166001600160a01b0392831617905560c08301516006909201805460e085015161010090950151939092166001600160a81b031990921691909117600160a01b931515939093029290921760ff60a81b1916600160a81b911515919091021790556002546040513391907f16244e47af8a7d2c923faa2cab44315c0514c7aa830682bbb9cc8f0d37ad7548906123d49089908790612b4d565b60405180910390a350600254949350505050565b6040518060c001604052806000815260200160006001600160a01b0316815260200160006001600160a01b0316815260200160008152602001600081526020016000151581525090565b604051806101200160405280600081526020016060815260200160608152602001606081526020016000815260200160006001600160a01b0316815260200160006001600160a01b031681526020016000151581526020016000151581525090565b602080825282518282018190526000919060409081850190868401855b8281101561250d57815180518552868101516001600160a01b0390811688870152868201511686860152606080820151908601526080808201519086015260a09081015115159085015260c090930192908501906001016124b1565b5091979650505050505050565b6000815180845260005b8181101561254057602081850181015186830182015201612524565b506000602082860101526020601f19601f83011685010191505092915050565b60006020808301818452808551808352604092508286019150828160051b87010184880160005b8381101561265057603f1989840301855281516101208151855288820151818a8701526125b68287018261251a565b91505087820151858203898701526125ce828261251a565b915050606080830151868303828801526125e8838261251a565b92505050608080830151818701525060a080830151612611828801826001600160a01b03169052565b505060c0828101516001600160a01b03169086015260e08083015115159086015261010091820151151591909401529386019390860190600101612587565b509098975050505050505050565b60006020828403121561267057600080fd5b5035919050565b60006101008a83528060208401526126918184018b61251a565b905082810360408401526126a5818a61251a565b905082810360608401526126b9818961251a565b608084019790975250506001600160a01b0393841660a08201529190921660c082015290151560e090910152949350505050565b60006101208b83528060208401526127078184018c61251a565b9050828103604084015261271b818b61251a565b9050828103606084015261272f818a61251a565b608084019890985250506001600160a01b0394851660a08201529290931660c0830152151560e082015290151561010090910152949350505050565b634e487b7160e01b600052604160045260246000fd5b600082601f83011261279257600080fd5b813567ffffffffffffffff808211156127ad576127ad61276b565b604051601f8301601f19908116603f011681019082821181831017156127d5576127d561276b565b816040528381528660208588010111156127ee57600080fd5b836020870160208301376000602085830101528094505050505092915050565b6000806000806080858703121561282457600080fd5b843567ffffffffffffffff8082111561283c57600080fd5b61284888838901612781565b9550602087013591508082111561285e57600080fd5b61286a88838901612781565b9450604087013591508082111561288057600080fd5b5061288d87828801612781565b949793965093946060013593505050565b634e487b7160e01b600052603260045260246000fd5b634e487b7160e01b600052601160045260246000fd5b6000600182016128dc576128dc6128b4565b5060010190565b600181811c908216806128f757607f821691505b6020821081036114cd57634e487b7160e01b600052602260045260246000fd5b60208082526021908201527f4f6e6c79206f776e65722063616e2063616c6c20746869732066756e6374696f6040820152603760f91b606082015260800190565b6020808252601f908201527f50656e64696e6720707572636861736520646f6573206e6f7420657869737400604082015260600190565b818103818111156129a2576129a26128b4565b92915050565b6060815260008085546129ba816128e3565b80606086015260806001808416600081146129dc57600181146129f657612a27565b60ff1985168884015283151560051b880183019550612a27565b8a60005260208060002060005b86811015612a1e5781548b8201870152908401908201612a03565b8a018501975050505b505050505060208301949094525060400152919050565b601f821115612a8857600081815260208120601f850160051c81016020861015612a655750805b601f850160051c820191505b81811015612a8457828155600101612a71565b5050505b505050565b815167ffffffffffffffff811115612aa757612aa761276b565b612abb81612ab584546128e3565b84612a3e565b602080601f831160018114612af05760008415612ad85750858301515b600019600386901b1c1916600185901b178555612a84565b600085815260208120601f198616915b82811015612b1f57888601518255948401946001909101908401612b00565b5085821015612b3d5787850151600019600388901b60f8161c191681555b5050505050600190811b01905550565b604081526000612b60604083018561251a565b9050826020830152939250505056fea2646970667358221220e8dbd1b2b7cd4e27b22f34084766dde300ddde7f2d02ab69e8145f65e6fc8e6c64736f6c63430008130033",
  "linkReferences": {},
  "deployedLinkReferences": {}
}